{
  "contractName": "Tests",
  "abi": [
    {
      "constant": true,
      "inputs": [],
      "name": "ItemCount",
      "outputs": [
        {
          "internalType": "int256",
          "name": "",
          "type": "int256"
        }
      ],
      "payable": false,
      "stateMutability": "view",
      "type": "function"
    },
    {
      "constant": true,
      "inputs": [
        {
          "internalType": "int256",
          "name": "",
          "type": "int256"
        }
      ],
      "name": "Items",
      "outputs": [
        {
          "internalType": "int256",
          "name": "id",
          "type": "int256"
        },
        {
          "internalType": "string",
          "name": "itemName",
          "type": "string"
        },
        {
          "internalType": "uint256",
          "name": "Price",
          "type": "uint256"
        },
        {
          "internalType": "uint256",
          "name": "Picture",
          "type": "uint256"
        },
        {
          "internalType": "string",
          "name": "Location",
          "type": "string"
        },
        {
          "internalType": "address payable",
          "name": "oAddress",
          "type": "address"
        },
        {
          "internalType": "address",
          "name": "rAddress",
          "type": "address"
        },
        {
          "internalType": "uint256",
          "name": "rentEndsAt",
          "type": "uint256"
        }
      ],
      "payable": false,
      "stateMutability": "view",
      "type": "function"
    },
    {
      "constant": true,
      "inputs": [
        {
          "internalType": "int256",
          "name": "id",
          "type": "int256"
        }
      ],
      "name": "GetItemName",
      "outputs": [
        {
          "internalType": "string",
          "name": "",
          "type": "string"
        }
      ],
      "payable": false,
      "stateMutability": "view",
      "type": "function"
    },
    {
      "constant": true,
      "inputs": [
        {
          "internalType": "int256",
          "name": "id",
          "type": "int256"
        }
      ],
      "name": "GetItemPrice",
      "outputs": [
        {
          "internalType": "int256",
          "name": "",
          "type": "int256"
        }
      ],
      "payable": false,
      "stateMutability": "view",
      "type": "function"
    },
    {
      "constant": true,
      "inputs": [
        {
          "internalType": "int256",
          "name": "id",
          "type": "int256"
        }
      ],
      "name": "GetItemLocation",
      "outputs": [
        {
          "internalType": "string",
          "name": "",
          "type": "string"
        }
      ],
      "payable": false,
      "stateMutability": "view",
      "type": "function"
    },
    {
      "constant": true,
      "inputs": [
        {
          "internalType": "int256",
          "name": "id",
          "type": "int256"
        }
      ],
      "name": "GetItemPicture",
      "outputs": [
        {
          "internalType": "int256",
          "name": "",
          "type": "int256"
        }
      ],
      "payable": false,
      "stateMutability": "view",
      "type": "function"
    },
    {
      "constant": false,
      "inputs": [
        {
          "internalType": "string",
          "name": "itemName",
          "type": "string"
        },
        {
          "internalType": "uint256",
          "name": "Price",
          "type": "uint256"
        },
        {
          "internalType": "string",
          "name": "Location",
          "type": "string"
        },
        {
          "internalType": "uint256",
          "name": "Picture",
          "type": "uint256"
        }
      ],
      "name": "AddItem",
      "outputs": [],
      "payable": false,
      "stateMutability": "nonpayable",
      "type": "function"
    },
    {
      "constant": false,
      "inputs": [
        {
          "internalType": "int256",
          "name": "id",
          "type": "int256"
        },
        {
          "internalType": "string",
          "name": "newName",
          "type": "string"
        }
      ],
      "name": "UpdateName",
      "outputs": [
        {
          "internalType": "bool",
          "name": "",
          "type": "bool"
        }
      ],
      "payable": false,
      "stateMutability": "nonpayable",
      "type": "function"
    },
    {
      "constant": false,
      "inputs": [
        {
          "internalType": "int256",
          "name": "id",
          "type": "int256"
        }
      ],
      "name": "RemoveItem",
      "outputs": [
        {
          "internalType": "bool",
          "name": "",
          "type": "bool"
        }
      ],
      "payable": false,
      "stateMutability": "nonpayable",
      "type": "function"
    },
    {
      "constant": false,
      "inputs": [
        {
          "internalType": "int256",
          "name": "id",
          "type": "int256"
        }
      ],
      "name": "BuyItem",
      "outputs": [],
      "payable": true,
      "stateMutability": "payable",
      "type": "function"
    },
    {
      "constant": true,
      "inputs": [],
      "name": "addedItems",
      "outputs": [
        {
          "internalType": "int256[]",
          "name": "",
          "type": "int256[]"
        }
      ],
      "payable": false,
      "stateMutability": "view",
      "type": "function"
    }
  ],
  "bytecode": "0x608060405234801561001057600080fd5b506114b2806100206000396000f3fe60806040526004361061009c5760003560e01c80636f354dec116100645780636f354dec146104f95780637415ad99146105ad5780639fd231ee14610619578063ad9f858d14610668578063c59a971b1461071c578063de7814971461076b5761009c565b80630b01ccd1146100a15780630ca564e91461021457806315c911e6146102fe578063406b98dd146104a05780635a663b91146104ce575b600080fd5b3480156100ad57600080fd5b50610212600480360360808110156100c457600080fd5b81019080803590602001906401000000008111156100e157600080fd5b8201836020820111156100f357600080fd5b8035906020019184600183028401116401000000008311171561011557600080fd5b91908080601f016020809104026020016040519081016040528093929190818152602001838380828437600081840152601f19601f820116905080830192505050505050509192919290803590602001909291908035906020019064010000000081111561018257600080fd5b82018360208201111561019457600080fd5b803590602001918460018302840111640100000000831117156101b657600080fd5b91908080601f016020809104026020016040519081016040528093929190818152602001838380828437600081840152601f19601f820116905080830192505050505050509192919290803590602001909291905050506107be565b005b34801561022057600080fd5b506102e46004803603604081101561023757600080fd5b81019080803590602001909291908035906020019064010000000081111561025e57600080fd5b82018360208201111561027057600080fd5b8035906020019184600183028401116401000000008311171561029257600080fd5b91908080601f016020809104026020016040519081016040528093929190818152602001838380828437600081840152601f19601f820116905080830192505050505050509192919290505050610953565b604051808215151515815260200191505060405180910390f35b34801561030a57600080fd5b506103376004803603602081101561032157600080fd5b81019080803590602001909291905050506109fb565b6040518089815260200180602001888152602001878152602001806020018673ffffffffffffffffffffffffffffffffffffffff1673ffffffffffffffffffffffffffffffffffffffff1681526020018573ffffffffffffffffffffffffffffffffffffffff1673ffffffffffffffffffffffffffffffffffffffff16815260200184815260200183810383528a818151815260200191508051906020019080838360005b838110156103f75780820151818401526020810190506103dc565b50505050905090810190601f1680156104245780820380516001836020036101000a031916815260200191505b50838103825287818151815260200191508051906020019080838360005b8381101561045d578082015181840152602081019050610442565b50505050905090810190601f16801561048a5780820380516001836020036101000a031916815260200191505b509a505050505050505050505060405180910390f35b6104cc600480360360208110156104b657600080fd5b8101908080359060200190929190505050610bb3565b005b3480156104da57600080fd5b506104e3610ed6565b6040518082815260200191505060405180910390f35b34801561050557600080fd5b506105326004803603602081101561051c57600080fd5b8101908080359060200190929190505050610edc565b6040518080602001828103825283818151815260200191508051906020019080838360005b83811015610572578082015181840152602081019050610557565b50505050905090810190601f16801561059f5780820380516001836020036101000a031916815260200191505b509250505060405180910390f35b3480156105b957600080fd5b506105c2610f93565b6040518080602001828103825283818151815260200191508051906020019060200280838360005b838110156106055780820151818401526020810190506105ea565b505050509050019250505060405180910390f35b34801561062557600080fd5b506106526004803603602081101561063c57600080fd5b810190808035906020019092919050505061108a565b6040518082815260200191505060405180910390f35b34801561067457600080fd5b506106a16004803603602081101561068b57600080fd5b81019080803590602001909291905050506110a9565b6040518080602001828103825283818151815260200191508051906020019080838360005b838110156106e15780820151818401526020810190506106c6565b50505050905090810190601f16801561070e5780820380516001836020036101000a031916815260200191505b509250505060405180910390f35b34801561072857600080fd5b506107556004803603602081101561073f57600080fd5b8101908080359060200190929190505050611160565b6040518082815260200191505060405180910390f35b34801561077757600080fd5b506107a46004803603602081101561078e57600080fd5b810190808035906020019092919050505061117f565b604051808215151515815260200191505060405180910390f35b6001600081548092919060010191905055506107d861129f565b60405180610100016040528060015481526020018681526020018581526020018381526020018481526020013373ffffffffffffffffffffffffffffffffffffffff168152602001600073ffffffffffffffffffffffffffffffffffffffff1681526020016000815250905080600080600154815260200190815260200160002060008201518160000155602082015181600101908051906020019061087f929190611310565b50604082015181600201556060820151816003015560808201518160040190805190602001906108b0929190611310565b5060a08201518160050160006101000a81548173ffffffffffffffffffffffffffffffffffffffff021916908373ffffffffffffffffffffffffffffffffffffffff16021790555060c08201518160060160006101000a81548173ffffffffffffffffffffffffffffffffffffffff021916908373ffffffffffffffffffffffffffffffffffffffff16021790555060e082015181600701559050505050505050565b60003373ffffffffffffffffffffffffffffffffffffffff1660008085815260200190815260200160002060050160009054906101000a900473ffffffffffffffffffffffffffffffffffffffff1673ffffffffffffffffffffffffffffffffffffffff16146109c657600090506109f5565b8160008085815260200190815260200160002060010190805190602001906109ef929190611390565b50600190505b92915050565b6000602052806000526040600020600091509050806000015490806001018054600181600116156101000203166002900480601f016020809104026020016040519081016040528092919081815260200182805460018160011615610100020316600290048015610aad5780601f10610a8257610100808354040283529160200191610aad565b820191906000526020600020905b815481529060010190602001808311610a9057829003601f168201915b505050505090806002015490806003015490806004018054600181600116156101000203166002900480601f016020809104026020016040519081016040528092919081815260200182805460018160011615610100020316600290048015610b575780601f10610b2c57610100808354040283529160200191610b57565b820191906000526020600020905b815481529060010190602001808311610b3a57829003601f168201915b5050505050908060050160009054906101000a900473ffffffffffffffffffffffffffffffffffffffff16908060060160009054906101000a900473ffffffffffffffffffffffffffffffffffffffff16908060070154905088565b610bbb61129f565b6000808381526020019081526020016000206040518061010001604052908160008201548152602001600182018054600181600116156101000203166002900480601f016020809104026020016040519081016040528092919081815260200182805460018160011615610100020316600290048015610c7c5780601f10610c5157610100808354040283529160200191610c7c565b820191906000526020600020905b815481529060010190602001808311610c5f57829003601f168201915b505050505081526020016002820154815260200160038201548152602001600482018054600181600116156101000203166002900480601f016020809104026020016040519081016040528092919081815260200182805460018160011615610100020316600290048015610d325780601f10610d0757610100808354040283529160200191610d32565b820191906000526020600020905b815481529060010190602001808311610d1557829003601f168201915b505050505081526020016005820160009054906101000a900473ffffffffffffffffffffffffffffffffffffffff1673ffffffffffffffffffffffffffffffffffffffff1673ffffffffffffffffffffffffffffffffffffffff1681526020016006820160009054906101000a900473ffffffffffffffffffffffffffffffffffffffff1673ffffffffffffffffffffffffffffffffffffffff1673ffffffffffffffffffffffffffffffffffffffff1681526020016007820154815250509050600073ffffffffffffffffffffffffffffffffffffffff168160c0015173ffffffffffffffffffffffffffffffffffffffff1614610e315750610ed3565b8060a0015173ffffffffffffffffffffffffffffffffffffffff166108fc670de0b6b3a76400008360400151029081150290604051600060405180830381858888f19350505050158015610e89573d6000803e3d6000fd5b50338160c0019073ffffffffffffffffffffffffffffffffffffffff16908173ffffffffffffffffffffffffffffffffffffffff16815250506224ea0042018160e0018181525050505b50565b60015481565b60606000808381526020019081526020016000206004018054600181600116156101000203166002900480601f016020809104026020016040519081016040528092919081815260200182805460018160011615610100020316600290048015610f875780601f10610f5c57610100808354040283529160200191610f87565b820191906000526020600020905b815481529060010190602001808311610f6a57829003601f168201915b50505050509050919050565b6060600080600190505b6001548113610fd95742600080838152602001908152602001600020600701541015610fcc5781806001019250505b8080600101915050610f9d565b5060608160405190808252806020026020018201604052801561100b5781602001602082028038833980820191505090505b509050600080600190505b60015481136110805742600080838152602001908152602001600020600701541015611073576000808281526020019081526020016000206000015483838151811061105e57fe5b60200260200101818152505081806001019250505b8080600101915050611016565b5081935050505090565b6000806000838152602001908152602001600020600201549050919050565b60606000808381526020019081526020016000206001018054600181600116156101000203166002900480601f0160208091040260200160405190810160405280929190818152602001828054600181600116156101000203166002900480156111545780601f1061112957610100808354040283529160200191611154565b820191906000526020600020905b81548152906001019060200180831161113757829003601f168201915b50505050509050919050565b6000806000838152602001908152602001600020600301549050919050565b60003373ffffffffffffffffffffffffffffffffffffffff1660008084815260200190815260200160002060050160009054906101000a900473ffffffffffffffffffffffffffffffffffffffff1673ffffffffffffffffffffffffffffffffffffffff16146111f2576000905061129a565b60008083815260200190815260200160002060008082016000905560018201600061121d9190611410565b6002820160009055600382016000905560048201600061123d9190611410565b6005820160006101000a81549073ffffffffffffffffffffffffffffffffffffffff02191690556006820160006101000a81549073ffffffffffffffffffffffffffffffffffffffff021916905560078201600090555050600190505b919050565b6040518061010001604052806000815260200160608152602001600081526020016000815260200160608152602001600073ffffffffffffffffffffffffffffffffffffffff168152602001600073ffffffffffffffffffffffffffffffffffffffff168152602001600081525090565b828054600181600116156101000203166002900490600052602060002090601f016020900481019282601f1061135157805160ff191683800117855561137f565b8280016001018555821561137f579182015b8281111561137e578251825591602001919060010190611363565b5b50905061138c9190611458565b5090565b828054600181600116156101000203166002900490600052602060002090601f016020900481019282601f106113d157805160ff19168380011785556113ff565b828001600101855582156113ff579182015b828111156113fe5782518255916020019190600101906113e3565b5b50905061140c9190611458565b5090565b50805460018160011615610100020316600290046000825580601f106114365750611455565b601f0160209004906000526020600020908101906114549190611458565b5b50565b61147a91905b8082111561147657600081600090555060010161145e565b5090565b9056fea265627a7a72315820f962c7af17172c62d053e2082a989597de98111aa27e6d38f177fab8c18439bc64736f6c63430005100032",
  "source": "pragma solidity ^0.5.1;\n\ncontract Tests {\n\n    struct Item\n    {\n        int256 id;\n        string itemName;\n        uint256 Price;\n        uint256 Picture;\n        string Location;\n        address payable oAddress;\n        address rAddress;\n        uint256 rentEndsAt;\n    }\n\n    mapping(int256 => Item) public Items;\n\n    int256 public ItemCount;\n\n    function GetItemName(int256 id) public view returns (string memory)\n    {\n        return Items[id].itemName;\n    }\n\n    function GetItemPrice(int256 id) public view returns (int)\n    {\n        return int(Items[id].Price);\n    }\n    function GetItemLocation(int256 id) public view returns (string memory)\n    {\n        return Items[id].Location;\n    }\n    function GetItemPicture(int256 id) public view returns (int)\n    {\n        return int(Items[id].Picture);\n    }\n\n    function AddItem(string memory itemName, uint256 Price, string memory Location, uint256 Picture) public\n    {\n        ItemCount++;\n\n        Item memory item = Item(ItemCount, itemName, Price, Picture, Location, msg.sender, address(0), 0);\n\n        Items[ItemCount] = item;\n\n    }\n\n    function UpdateName(int256 id, string memory newName) public returns (bool)\n    {\n        if (Items[id].oAddress != msg.sender)\n        {\n            return false;\n        }\n\n        Items[id].itemName = newName;\n\n        return true;\n    }\n\n    function RemoveItem(int256 id) public returns (bool)\n    {\n        if (Items[id].oAddress != msg.sender)\n        {\n            return false;\n        }\n\n        delete Items[id];\n\n        return true;\n    }\n\n    function BuyItem(int256 id) public payable\n    {\n        Item memory sellingItem = Items[id];\n\n        if (sellingItem.rAddress != address(0))\n        {\n            return;\n        }\n\n        //payment\n        sellingItem.oAddress.transfer(sellingItem.Price * 10**18);\n\n        sellingItem.rAddress = msg.sender;\n\n\n        sellingItem.rentEndsAt = block.timestamp + (4 * 7 days);\n    }\n\n    function addedItems() public view returns(int256[] memory)\n    {\n        uint256 Count;\n\n        for (int i = 1; i <= ItemCount; i++)\n        {\n            if (Items[i].rentEndsAt < block.timestamp) {\n                Count++;\n            }\n        }\n\n        int256[] memory result = new int256[](Count);\n        uint256 j;\n\n        for (int i = 1; i <= ItemCount; i++)\n        {\n            if (Items[i].rentEndsAt < block.timestamp) {\n                result[j] = Items[i].id;\n                j++;\n            }\n        }\n        return result;\n    }\n\n}",
  "sourcePath": "/Users/patrikas/Desktop/pet-shop-tutorial/contracts/Tests.sol",
  "compiler": {
    "name": "solc",
    "version": "0.5.16+commit.9c3226ce.Emscripten.clang"
  },
  "schemaVersion": "3.4.3",
  "updatedAt": "2021-12-15T09:25:48.636Z",
  "networkType": "ethereum",
  "devdoc": {
    "methods": {}
  },
  "userdoc": {
    "methods": {}
  }
}